:100000000C9434000C9488000C94BD000C94F20005
:100010000C9451000C9453000C9451000C9451001A
:100020000C9451000C9451000C9451000C9451000C
:100030000C9451000C9451000C9451000C945100FC
:100040000C9451000C9451000C9451000C945100EC
:100050000C9451000C9451000C9451000C945100DC
:100060000C9451000C94510011241FBECFEFD4E02A
:10007000DEBFCDBF11E0A0E0B1E0ECE5F2E102C0EF
:1000800005900D92A430B107D9F721E0A4E0B1E0CA
:1000900001C01D92A336B207E1F70E94D9080C9463
:1000A0002C090C9400001F920F920FB60F9211248E
:1000B0002F933F938F939F93499B09C08091840016
:1000C00090918500909346018093450118C081E08E
:1000D00090E090935201809351018091840090911F
:1000E00085002091450130914601821B930B90932E
:1000F00054018093530110925201109251019F912B
:100100008F913F912F910F900FBE0F901F901895D8
:100110001F920F920FB60F9211242F933F938F933C
:100120009F934A9B09C08091840090918500909391
:1001300025018093240118C081E090E09093520142
:100140008093510180918400909185002091240139
:1001500030912501821B930B90933B0180933A01D0
:1001600010925201109251019F918F913F912F91C6
:100170000F900FBE0F901F9018951F920F920FB601
:100180000F9211242F933F938F939F934B9B09C002
:10019000809184009091850090933101809330018B
:1001A00018C081E090E090935201809351018091BA
:1001B0008400909185002091300130913101821BA3
:1001C000930B9093500180934F0110925201109223
:1001D00051019F918F913F912F910F900FBE0F90E2
:1001E0001F9018951F920F920FB60F9211242F9304
:1001F0003F938F939F931F9B09C0809184009091A0
:10020000850090934E0180934D0118C081E090E0ED
:1002100090935201809351018091840090918500C8
:1002200020914D0130914E01821B930B9093270139
:100230008093260110925201109251019F918F914B
:100240003F912F910F900FBE0F901F9018958FE345
:1002500080937E0010927B00089580937C0086EC52
:1002600080937A0080917A0086FDFCCF0895CF922A
:10027000DF92EF92FF920F931F93CF93DF9383E070
:100280000E942D0108E710E0F801808190E0E7E48A
:10029000F1E091838083C9E7D0E04881C12C24E05C
:1002A000D22E9601281B390BC901342F20E0821B66
:1002B000930B918380833AE0E32EF12CB7010E94E7
:1002C000DE08709335016093340184E00E942D01B3
:1002D000F801808190E0E9E4F1E091838083488136
:1002E0009601281B390BC901342F20E0821B930B88
:1002F00091838083B7010E94DE0870933701609379
:10030000360185E00E942D01F801808190E0EBE448
:10031000F1E09183808348819601281B390BC90144
:10032000342F20E0821B930B91838083B7010E94BE
:10033000DE087093390160933801DF91CF911F91EE
:100340000F91FF90EF90DF90CF900895CF93C82F3B
:1003500082E00E942D018091780080931B01109211
:100360001C0190917900392F20E0280F311D309326
:100370001C0120931B01C1110AC0809105019091BD
:100380000601281B390B30931C0120931B0181E0CF
:100390000E942D018091780080931D0110921E0112
:1003A00090917900392F20E0280F311D30931E01E4
:1003B00020931D01C1110AC040910701509108010D
:1003C000241B350B30931E0120931D0180E00E94F9
:1003D0002D018091780080931F011092200190914F
:1003E0007900392F20E0280F311D30932001209310
:1003F0001F01C1110AC08091090190910A01281BB7
:10040000390B3093200120931F01CF910895CF9392
:100410000E94370110920601109205011092080106
:100420001092070110920A0110920901C0E281E0C6
:100430000E94A601409105015091060180911B0187
:1004400090911C01480F591F5093060140930501DC
:10045000209107013091080180911D0190911E01AA
:10046000280F391F3093080120930701809109015B
:1004700090910A0160911F0170912001860F971FD2
:1004800090930A0180930901C15089F665E0559562
:1004900047956A95E1F7509306014093050175E091
:1004A000359527957A95E1F7309308012093070158
:1004B000E5E095958795EA95E1F790930A01809399
:1004C000090181E080932301CF910895809151012A
:1004D00090915201892BD1F7809153019091540151
:1004E00020915B0130915C01821B930B9595879560
:1004F00095958795909329018093280180915101CA
:1005000090915201892BD1F780913A0190913B0152
:1005100020915D0130915E01821B930B959587952B
:100520009595879590934301809342018091510165
:1005300090915201892BD1F780914F0190915001F8
:1005400020915F0130916001821B930BA3E0959590
:100550008795AA95E1F790931A01809319018091EC
:10056000510190915201892BD1F7809126019091F0
:1005700027012091610130916201821B930B9093BE
:100580000E0180930D01959587959595879590938C
:100590002B0180932A01089580910401811105C0E7
:1005A00080914401811107C10895809121019091AA
:1005B000220197FF05C0109222011092210109C06B
:1005C0008536910534F084E690E090932201809383
:1005D000210180912C0190912D0197FF05C010926F
:1005E0002D0110922C0109C08536910534F084E666
:1005F00090E090932D0180932C0180913E01909189
:100600003F0197FF05C010923F0110923E0109C0C3
:100610008536910534F084E690E090933F01809315
:100620003E01809132019091330197FF05C01092F5
:1006300033011092320109C08536910534F084E609
:1006400090E09093330180933201809184009091E7
:10065000850020910F0130911001821B930B909324
:10066000120180931101A89816BC6AE070E00E9404
:10067000DE086F5F6093130184E690E0861B9109AA
:1006800067FD9395909315018093140120912101AA
:1006900030912201280F391F30932201209321012C
:1006A00020912C0130912D01280F391F30932D01FD
:1006B00020932C0120913E0130913F01280F391FDA
:1006C00030933F0120933E0120913201309133015C
:1006D000280F391F3093330120933201A89816BC9C
:1006E0006093160143C086B58035E8F386B5805522
:1006F00086BD8091210190912201009741F00197E0
:100700009093220180932101892B09F429988091EB
:100710002C0190912D01009741F0019790932D01AC
:1007200080932C01892B09F4289880913E019091A7
:100730003F01009741F0019790933F0180933E0164
:10074000892B09F45F9880913201909133010097D1
:1007500041F001979093330180933201892B09F482
:100760005E98809116018F5F80931601809116012B
:10077000883C08F4B8CF8091000190910101019765
:100780009093180180931701A89816BC06C086B5EF
:100790008035E8F386B5805586BD8091170190912C
:1007A00018019C0121503109309318012093170141
:1007B000892B69F7F5CE8091840090918500909304
:1007C000100180930F0181E080930401299A289AF7
:1007D0005F9A5E9A08950F931F93CF93DF931F92B2
:1007E000CDB7DEB78C0169830E941609698186172F
:1007F00041F0C8010F90DF91CF911F910F910C94A0
:100800001E090F90DF91CF911F910F910895EF92E4
:10081000FF920F931F93CF93DF93EC018B017A012B
:10082000E80EF91E06C06991C8010E94EB030F5F34
:100830001F4FCE15DF05B9F7DF91CF911F910F91B3
:10084000FF90EF90089581E08093580180935901C3
:1008500010925A0180EF95E090935C0180935B01C8
:1008600090935E0180935D0120E634E03093600157
:1008700020935F0190936201809361010895F89441
:100880004CE050E060E070E087E591E00E940704F2
:100890007894089580E090E00E941609873439F03A
:1008A00087E4809357010E9423040C943F044CE09A
:1008B00050E060E070E087E591E00C94060907C025
:1008C0000000000000000000000000000000815057
:1008D000B8F708951F93CF93DF93EC0107C01AE098
:1008E00084E60E945F041150D9F721972097B9F749
:1008F000DF91CF911F910895CF92DF92EF92FF92F7
:100900000F931F93CF93DF930E946602809119018A
:1009100090911A0197FF67C12091B20080910B015D
:10092000281B8091020190910301820F911D9093E9
:100930000301809302018091B20080930B0120910A
:10094000440180912A0190912B01211103C0CC9781
:100950007CF003C0853C9F4F5CF4809142019091F4
:10096000430197FF03C09195819591094F9724F01A
:1009700010920301109202018091020190910301F3
:1009800083349F4070F181E08227809344012E9848
:1009900010925601109255018823A1F00E9407027F
:1009A000109204012E9A82E390E090933D0180938F
:1009B0003C0190932F0180932E01909341018093ED
:1009C00040015DC280910401882309F458C2DF917F
:1009D000CF911F910F91FF90EF90DF90CF900C94EB
:1009E000CC02222309F452C080912A0190912B015C
:1009F000843C9F4F0CF04AC080914201909143018A
:100A0000CD970CF443C08091550190915601892BEC
:100A100051F08091550190915601019690935601A5
:100A20008093550133C08FE69EEF909356018093DB
:100A300055010E9407021092040186E990E00E948D
:100A40006A0482E390E090933D0180933C0190938F
:100A50002F0180932E0190934101809340011092C9
:100A60000C010FC02E9889E190E00E946A042E9A32
:100A700089E190E00E946A0480910C018F5F80936D
:100A80000C0180910C01882369F3C3CF809144014C
:100A9000882309F453C080912A0190912B01843C52
:100AA0009F4F0CF04BC08091420190914301843CD8
:100AB0009F4F0CF043C08091550190915601892BB6
:100AC00051F08091550190915601019690935601F5
:100AD0008093550133C08FE69EEF9093560180932B
:100AE00055010E9407021092040184E690E00E94E2
:100AF0006A0486E490E090933D0180933C019093DA
:100B00002F0180932E019093410180934001109218
:100B10000C010FC02E9889E190E00E946A042E9A81
:100B200089E190E00E946A0480910C018F5F8093BC
:100B30000C0180910C01823068F3C3CF8091440195
:100B4000882309F450C080912A0190912B01CD9700
:100B50000CF449C08091420190914301843C9F4F25
:100B60000CF041C08091550190915601892B51F0B4
:100B70008091550190915601019690935601809372
:100B8000550131C08FE69EEF909356018093550139
:100B90000E9407021092040182E390E090933D01CD
:100BA00080933C0190932F0180932E018AE590E081
:100BB000909341018093400110920C010FC02E9838
:100BC00089E190E00E946A042E9A89E190E00E94F7
:100BD0006A0480910C018F5F80930C0180910C015D
:100BE000843068F3C5CF80E00E94A601809119018E
:100BF00090911A018B35910534F08AE590E090933D
:100C00001A01809319012091190130911A018091E4
:100C1000340190913501AC01440F551F480F591F05
:100C200060911B0170911C01469FC001479F900D70
:100C3000569F900D112468EC70E00E94F208FB01B1
:100C400070931C0160931B01609128017091290130
:100C500040913C0150913D01649FC001659F900D02
:100C6000749F900D112464E670E00E94F208809158
:100C70005801811107C0E60FF71FF0932901E09397
:100C8000280106C06E1B7F0B709329016093280119
:100C900080912801909129018901080F191FE9010C
:100CA000C81BD90B8091360190913701AC01440FDC
:100CB000551F480F591F60911D0170911E01469FDD
:100CC000C001479F900D569F900D112468EC70E075
:100CD0000E94F208FB0170931E0160931D01609158
:100CE00042017091430140912E0150912F01649F68
:100CF000C001659F900D749F900D112464E670E013
:100D00000E94F20880915901811107C0E60FF71F78
:100D1000F0934301E093420106C06E1B7F0B70937A
:100D20004301609342018091420190914301690126
:100D3000C80ED91E7901E81AF90A809138019091FC
:100D40003901AC01440F551F480F591F60911F0115
:100D500070912001469FC001479F900D569F900DB6
:100D6000112468EC70E00E94F208FB0170932001EE
:100D700060931F0160912A0170912B014091400105
:100D800050914101649FC001659F900D749F900D2B
:100D9000112464E670E00E94F20880915A018111EA
:100DA00007C0E60FF71FF0932B01E0932A0106C05E
:100DB0006E1B7F0B70932B0160932A0180912A0197
:100DC00090912B01B601681B790B709322016093FF
:100DD0002101080F191F10932D0100932C01AE0162
:100DE000480F591F50933F0140933E01F701E81B04
:100DF000F90BCF01F0933301E09332016A307105B2
:100E000034F46AE070E070932201609321010A30AB
:100E1000110534F46AE070E070932D0160932C01A9
:100E20004A30510534F44AE050E050933F0140937A
:100E30003E010A9734F48AE090E090933301809366
:100E400032011216130644F480914401882321F0E4
:100E500080912301811110C0109222011092210172
:100E600010922D0110922C0110923F0110923E0120
:100E7000109233011092320180914401A5CDDF918F
:100E8000CF911F910F91FF90EF90DF90CF90089539
:100E9000CF92DF92EF92FF920F931F93CF93DF9346
:100EA00085B7806185BF5198529853982798389894
:100EB00039983A983D983C983B98219A209A579AAD
:100EC000569A269A2E9849984A984B981F9880913E
:100ED00068008160809368008091680084608093DE
:100EE000680080916B00806880936B0080916D003A
:100EF000826080936D0085E08093690083E08DBB04
:100F00008CB383608CBB14BC81E085BD10926E00F5
:100F10001092800082E0809381001092B00087E000
:100F20008093B1001092700017BA1092B2000E9424
:100F30004A040E942701109223011092440110924A
:100F400052011092510180915B0190915C0190934C
:100F500054018093530180915D0190915E019093C3
:100F60003B0180933A0180915F01909160019093E1
:100F7000500180934F0180916101909162019093A3
:100F80002701809326012E9A86E990E00E946A0448
:100F90002E9878948CED95E00E946A040E943701A7
:100FA0000E9437018091490190914A01C39708F04E
:100FB0006CC08091470190914801C39748F480919B
:100FC0004B0190914C01C39718F40E942304FFCF6A
:100FD00010925C0110925B0110925E0110925D0113
:100FE0001092620110926101C3E0D0E02E9A89E173
:100FF00090E00E946A042E9889E190E00E946A04C1
:101000002197A1F786EA9EE00E946A04F4E0CF2EC1
:10101000D12CC0E0D0E000E010E0E12CF12C0E94E7
:1010200066028091280190912901E80EF91E8091B5
:10103000420190914301080F191F80912A0190915C
:101040002B01C80FD91F84E690E00E946A0421E0BA
:10105000C21AD10821F7F0925C01E0925B01109373
:101060005E0100935D0180E694E0909360018093BF
:101070005F01D0936201C09361010E943F042E9AE8
:1010800086E990E00E946A042E9880914701909131
:101090004801C39708F04EC0C3E0D0E02E9A89E122
:1010A00090E00E946A042E9889E190E00E946A0410
:1010B0002197A1F7C1E00E946602809128019091DA
:1010C0002901823E9F4F2CF4109258010E943F0448
:1010D0002E9A80912801909129014F971CF0C0937E
:1010E00058011FC08091420190914301823E2FEF31
:1010F00092071CF41092590114C04F971CF0C09332
:1011000059010FC080912A0190912B01823E2FEF4F
:1011100092071CF410925A0104C04F972CF0C09310
:101120005A010E943F042E9A82E390E00E946A04D2
:101130002E98C1CF80914B0190914C01C39780F5BF
:10114000C3E0D0E02E9A89E190E00E946A042E98D4
:1011500089E190E00E946A042197A1F781E08093E1
:10116000440188E097E090930101809300010E9480
:1011700066028091190190911A0190932201809347
:10118000210190932D0180932C0190933F01809336
:101190003E0190933301809332010E94CC02E7CF4D
:1011A000DF91CF911F910F91FF90EF90DF90CF9043
:1011B00008950E9448070E947C04FDCFAA1BBB1B18
:1011C00051E107C0AA1FBB1FA617B70710F0A61B47
:1011D000B70B881F991F5A95A9F780959095BC0168
:1011E000CD01089597FB072E16F4009407D077FDE4
:1011F00009D00E94DE0807FC05D03EF49095819549
:101200009F4F0895709561957F4F0895DC01CB0144
:10121000FC01F999FECF06C0F2BDE1BDF89A319606
:1012200000B40D9241505040B8F70895F999FECF9F
:1012300092BD81BDF89A992780B50895262FF99916
:10124000FECF1FBA92BD81BD20BD0FB6F894FA9AA9
:0C125000F99A0FBE01960895F894FFCFA4
:04125C00020001008B
:00000001FF
